:020000040800F2
:100000000028002009120008991100089F1100081B
:10001000A5110008AB110008B11100080000000094
:10002000000000000000000000000000B711000800
:10003000C311000800000000CF110008DB11000808
:100040005112000851120008511200085112000804
:1000500051120008511200085112000851120008F4
:1000600051120008511200085112000851120008E4
:1000700051120008511200085112000851120008D4
:1000800051120008511200085112000851120008C4
:1000900051120008511200085112000851120008B4
:1000A00051120008511200085112000851120008A4
:1000B000E911000851120008000000005112000868
:1000C000511200080000000000000000511200085A
:1000D000000000005112000851120008000000004A
:1000E00051120008511200085112000800000000CF
:1000F0000000000000000000000000000000000000
:0C01000000000000000000005FF808F1A3
:10010C0010B5054C237833B9044B13B10448AFF345
:10011C0000800123237010BD680000200000000047
:10012C008028000808B5034B1BB103490348AFF303
:10013C00008008BD000000006C0000208028000832
:10014C0080B500AF1B4B1B6801331A4A1360194B67
:10015C001B68032B03DD174B00221A6006E0154BBE
:10016C001B68002B02D0144B01221A6000222021A4
:10017C00124801F06AFB00224021104801F065FB97
:10018C00002280210D4801F060FB00224FF48071A9
:10019C000A4801F05AFB00224FF40071074801F0A5
:1001AC0054FB00224FF48061044801F04EFB00BF69
:1001BC0080BD00BF84000020A0000020000801408A
:1001CC0080B500AFFFF7BCFF00BF80BD80B500AFAE
:1001DC00214B1B68214A1360214B1B681E4A13607C
:1001EC000421204801F01AFB03461A461C4B1A60E6
:1001FC001A4B1A68184B1B689A422BD1164B1A686B
:10020C00174B1B689A4225D1174B1A68144B1B6865
:10021C009A420DD0124B1B68134A1360104B1B688B
:10022C00002B17D1FFF78CFF104BC8221A6011E07E
:10023C000E4B1B68013B0D4A13600C4B1B68002BCB
:10024C0008D1074B1B68002B01D1FFF7B9FF074BF7
:10025C00C8221A6000BF80BD0400002000000020EE
:10026C0008000020000801400C00002010000020B5
:10027C0080B483B000AF7860134B1B68002B1DD08B
:10028C00114B1B68013B114A52F823100E4B1B6893
:10029C00013B7A680A440D4941F823200A4B1B683C
:1002AC00013B0A4A52F82330094A934206DD064BB9
:1002BC001B68013B054A002142F8231000BF0C3794
:1002CC00BD4680BC704700BF840000203C0000206D
:1002DC00B882010080B500AF4FF47A70FFF7C8FF09
:1002EC0000BF80BD80B500AF41F28830FFF7C0FF82
:1002FC0000BF80BD80B500AF214B1B68214A136045
:10030C00214B1B681E4A13600821204801F086FA15
:10031C0003461A461C4B1A601A4B1A68184B1B687A
:10032C009A422BD1164B1A68174B1B689A4225D14F
:10033C00174B1A68144B1B689A420DD0124B1B6852
:10034C00134A1360104B1B68002B17D1FFF7C2FF29
:10035C00104B64221A6011E00B4B1B68002B0DD163
:10036C000C4B1B68013B0B4A13600A4B1B68002BA0
:10037C0004D1FFF7B7FF074B64221A6000BF80BDA2
:10038C0018000020140000201C0000200008014070
:10039C00200000202400002080B500AF224B1B68F9
:1003AC00012B0FD1204B1B68013B204A52F8233004
:1003BC001F4A13601E4B1A681E4B1B68D31A1E4A29
:1003CC00136026E0184B1B68022B0FD1164B1B68D1
:1003DC00013B164A52F82330164A1360154B1A6823
:1003EC00154B1B681344124A136012E00E4B1B682A
:1003FC00032B0ED10C4B1B68013B0C4A52F82330DB
:10040C000D4A13600B4B1A680B4B1B681344084ABC
:10041C001360054B1B68002B04D000F05DFC024BF5
:10042C0000221A6000BF80BD840000203C00002028
:10043C004C000020500000205400002080B500AF7C
:10044C00FFF7AAFF00BF80BD80B500AF214B1B6832
:10045C00214A1360214B1B681E4A1360102120484F
:10046C0001F0DCF903461A461C4B1A601A4B1A6849
:10047C00184B1B689A422BD1164B1A68174B1B68EA
:10048C009A4225D1174B1A68144B1B689A420DD00F
:10049C00124B1B68134A1360104B1B68002B17D1AF
:1004AC00FFF77AFF104BC8221A6011E00E4B1B6845
:1004BC00013B0D4A13600C4B1B68002B08D1074BFA
:1004CC001B68002B01D1FFF7B9FF074BC8221A603C
:1004DC0000BF80BD2C000020280000203000002030
:1004EC0000080140340000203800002080B582B0A4
:1004FC0000AF78607B68092B00F2808101A252F872
:10050C0023F000BF3905000881050008C905000863
:10051C001106000859060008A1060008E9060008A3
:10052C003107000879070008C107000800220121E3
:10053C00B54801F08AF900220221B34801F085F98F
:10054C0000220421B04801F080F900220821AE48B5
:10055C0001F07BF900221021AB4801F076F9002262
:10056C002021A94801F071F901224021A64801F08F
:10057C006CF944E101220121A34801F066F9002243
:10058C000221A14801F061F9002204219E4801F0EA
:10059C005CF9012208219C4801F057F90122102135
:1005AC00994801F052F901222021974801F04DF9A8
:1005BC0001224021944801F048F920E10022012158
:1005CC00914801F042F9002202218F4801F03DF9D7
:1005DC00012204218C4801F038F9002208218A48B4
:1005EC0001F033F900221021874801F02EF9012285
:1005FC002021854801F029F900224021824801F090
:10060C0024F9FCE0002201217F4801F01EF90022B0
:10061C0002217D4801F019F9002204217A4801F0E9
:10062C0014F900220821784801F00FF90122102159
:10063C00754801F00AF901222021734801F005F9EF
:10064C0000224021704801F000F9D8E0012201217C
:10065C006D4801F0FAF8002202216B4801F0F5F820
:10066C0000220421684801F0F0F8012208216648B4
:10067C0001F0EBF801221021634801F0E6F80022AA
:10068C002021614801F0E1F8002240215E4801F090
:10069C00DCF8B4E0002201215B4801F0D6F801221D
:1006AC000221594801F0D1F800220421564801F0EA
:1006BC00CCF800220821544801F0C7F8012210217F
:1006CC00514801F0C2F8002220214F4801F0BDF83A
:1006DC00002240214C4801F0B8F890E000220121A2
:1006EC00494801F0B2F801220221474801F0ADF867
:1006FC0000220421444801F0A8F8002208214248B5
:10070C0001F0A3F8002210213F4801F09EF80022CE
:10071C0020213D4801F099F8002240213A4801F08F
:10072C0094F86CE000220121374801F08EF8002289
:10073C000221354801F089F800220421324801F0E9
:10074C0084F801220821304801F07FF801221021A1
:10075C002D4801F07AF8012220212B4801F075F880
:10076C0001224021284801F070F848E000220121C4
:10077C00254801F06AF800220221234801F065F8AF
:10078C0000220421204801F060F8002208211E48B4
:10079C0001F05BF8002210211B4801F056F80022F2
:1007AC002021194801F051F800224021164801F08F
:1007BC004CF824E000220121134801F046F80022F5
:1007CC000221114801F041F8002204210E4801F0E9
:1007DC003CF8002208210C4801F037F801221021C6
:1007EC00094801F032F800222021074801F02DF8C9
:1007FC0000224021044801F028F800E000BF00BFAF
:10080C000837BD4680BD00BF000C014080B586B0E6
:10081C0000AF474B1B68474A82FB03125211DB1790
:10082C00D31A7B61444B1B68424A82FB0312521160
:10083C00DB17D31A3B617B69404A82FB031292108F
:10084C00DB17D31AFB607A693C4B83FB02139910BC
:10085C00D317C91A0B469B000B445B00D31ABB6021
:10086C003B69364A82FB03129210DB17D31A7B606A
:10087C003A69324B83FB02139910D317C91A0B46F2
:10088C009B000B445B00D31A3B60012280212C4857
:10089C0000F0DBFF01224FF48071294800F0D5FFF6
:1008AC0001224FF40071264800F0CFFF01224FF4D3
:1008BC008061234800F0C9FF224B1B68032B32D800
:1008CC0001A252F823F000BFE5080008F708000861
:1008DC000B0900081F09000800228021184800F0AD
:1008EC00B4FFF868FFF702FE1DE000224FF48071A0
:1008FC00134800F0AAFFB868FFF7F8FD13E00022D8
:10090C004FF400710E4800F0A0FF7868FFF7EEFD81
:10091C0009E000224FF48061094800F096FF386826
:10092C00FFF7E4FD00BF00BF1837BD4680BD00BF18
:10093C008C0000201F85EB519400002067666666D2
:10094C00000C0140A400002080B582B000AF3C4BED
:10095C001B68013B3B4A52F823303B4A82FB031293
:10096C001213DB17D31A7B60354B1B68013B354ADE
:10097C0052F82320344B83FB02131913D317CB1AD1
:10098C0042F2107101FB03F3D31A304A82FB0312BB
:10099C009211DB17D31A3B60012280212C4800F006
:1009AC0054FF01224FF48071294800F04EFF0122C0
:1009BC004FF40071264800F048FF01224FF480618B
:1009CC00234800F042FF234B1B68032B33D801A2B2
:1009DC0052F823F0F1090008030A00081B0A00086A
:1009EC002F0A000800228021194800F02EFF002059
:1009FC00FFF77CFD1FE000224FF48071144800F0DB
:100A0C0024FF0F4B1B681846FFF770FD13E0002204
:100A1C004FF400710E4800F018FF7868FFF766FD80
:100A2C0009E000224FF48061094800F00EFF38689D
:100A3C00FFF75CFD00BF00BF0837BD4680BD00BF9F
:100A4C00840000203C000020AD8BDB68D34D62108D
:100A5C00000C0140A400002080B500AF944B1B6833
:100A6C00032B00F21A8101A252F823F0890A000824
:100A7C00230C00084F0C00087B0C00088D4B1B68E6
:100A8C00002B07D08B4B00221A60FA2000F0BEFA24
:100A9C00FFF7BCFE884B1B68002B55D0864B002201
:100AAC001A60864B1B68022B36D0022B4DDC002BB8
:100ABC0002D0012B18D048E0804B01221A60002292
:100ACC0020217F4800F0C1FE002240217C4800F02C
:100ADC00BCFE012280217A4800F0B7FE794B1B68DE
:100AEC00184600F05FFA30E0744B02221A600022C4
:100AFC002021734800F0A9FE00228021704800F0EC
:100B0C00A4FE012240216E4800F09FFE6E4B1B6834
:100B1C00184600F047FA18E0684B00221A600022D1
:100B2C004021674800F091FE00228021644800F0CB
:100B3C008CFE01222021624800F087FE634B1B686B
:100B4C00184600F02FFA00E000BF614B1B68002B29
:100B5C005FD05F4B00221A605E4B1B68022B3DD0AE
:100B6C00022B00F39C80002B02D0012B1BD096E0B3
:100B7C00584B01221A6000224FF48071504800F04B
:100B8C0064FE00224FF400714D4800F05EFE01221D
:100B9C004FF480614A4800F058FE4A4B1B681846D7
:100BAC0000F01AFA36E04B4B02221A6000224FF486
:100BBC008071434800F049FE00224FF480614048A8
:100BCC0000F043FE01224FF400713D4800F03DFE61
:100BDC003D4B1B68184600F0FFF91BE03D4B002213
:100BEC001A6000224FF48061354800F02EFE00227E
:100BFC004FF40071324800F028FE01224FF480714E
:100C0C002F4800F022FE314B1B68184600F0E4F927
:100C1C0000E000BF43E0274B1B68002B41D0254B65
:100C2C0000221A60FA2000F0F1F92021244800F08B
:100C3C0024FE4FF48071224800F01FFEFFF784FE63
:100C4C002FE01C4B1B68002B2DD01A4B00221A6076
:100C5C00FA2000F0DBF94021194800F00EFE4FF4A9
:100C6C000071174800F009FEFFF76EFE1BE0114BF8
:100C7C001B68002B19D00F4B00221A60FA2000F0D1
:100C8C00C5F980210E4800F0F8FD4FF480610C4846
:100C9C0000F0F3FDFFF758FE07E000BF06E000BFD1
:100CAC0004E000BF02E000BF00E000BF00BF80BD59
:100CBC0084000020A000002090000020880000206C
:100CCC000008014054000020500000204C0000207F
:100CDC00980000204800002080B500AF00222021A1
:100CEC00204800F0B2FD002240211E4800F0ADFD6E
:100CFC00002280211B4800F0A8FD00224FF48071D7
:100D0C00184800F0A2FD00224FF40071154800F0C5
:100D1C009CFD00224FF48061124800F096FD0122E8
:100D2C002021104800F091FD0F4B1B68184600F075
:100D3C0039F901224FF480610A4800F086FD0B4B13
:100D4C001B68184600F048F9FA2000F05FF9084BD0
:100D5C0000221A60074B01221A60074B00221A600E
:100D6C0000BF80BD000801404C0000205400002052
:100D7C008800002048000020A400002080B500AFAF
:100D8C0000F062FA00F00EF800F094F800F046F86B
:100D9C00034801F0B7F9FFF79FFFFFF75DFEFCE793
:100DAC00A800002080B590B000AF07F118032822EE
:100DBC000021184601F056FD3B1D00221A605A60B6
:100DCC009A60DA601A610223BB610123BB621023B3
:100DDC00FB6200237B6307F11803184600F066FDE5
:100DEC000346002B01D000F0D7F80F237B600023C3
:100DFC00BB600023FB6000233B6100237B613B1D38
:100E0C000021184600F0D2FF0346002B01D000F061
:100E1C00C3F800BF4037BD4680BD000080B586B02A
:100E2C0000AF07F1080300221A605A609A60DA607A
:100E3C003B4600221A605A601D4B4FF080421A60EC
:100E4C001B4B41F63F725A60194B00229A60184BAB
:100E5C000922DA60164B00221A61154B00229A61A6
:100E6C00134801F0FFF80346002B01D000F094F872
:100E7C004FF48053BB6007F1080319460C4801F08E
:100E8C007DFA0346002B01D000F086F800233B606E
:100E9C0000237B603B461946054801F055FC034690
:100EAC00002B01D000F078F800BF1837BD4680BD8C
:100EBC00A800002080B586B000AF07F1080300221F
:100ECC001A605A609A60DA60284B9B69274A43F093
:100EDC0004039361254B9B6903F004037B607B68DF
:100EEC00224B9B69214A43F0080393611F4B9B697A
:100EFC0003F008033B603B6800224FF4FC611C4884
:100F0C0000F0A3FC002240F2FF711A4800F09DFC97
:100F1C001C23BB600023FB6001233B6107F108032A
:100F2C001946134800F000FB4FF4FC63BB6001232F
:100F3C00FB6000233B6102237B6107F10803194628
:100F4C000B4800F0F1FA40F2FF73BB600123FB6029
:100F5C0000233B6102237B6107F108031946054816
:100F6C0000F0E2FA00BF1837BD4680BD0010024009
:100F7C0000080140000C014080B582B000AF7860E1
:100F8C0000F05EF8FFF722F9FFF7B4F9FFF75CFA0F
:100F9C0000BF0837BD4680BD80B400AF72B600BF3D
:100FAC00FEE7000080B483B000AF7860074B1B688D
:100FBC007A6892FBF3F3064A1360064B00221A6020
:100FCC0000BF0C37BD4680BC704700BF58000020E6
:100FDC008C0000209000002080B483B000AF7860BB
:100FEC00074B1B687A6892FBF3F3064A1360064BB7
:100FFC0000221A6000BF0C37BD4680BC704700BF92
:10100C0058000020940000209800002080B483B089
:10101C0000AF7860074B1B687A6892FBF3F3064AC3
:10102C001360064B00221A6000BF0C37BD4680BC13
:10103C00704700BF580000209C000020A00000203A
:10104C0080B400AF1F4B1B68002B0BDD1D4B1B68C6
:10105C00013B1C4A13601B4B1B68002B02D11A4B23
:10106C0001221A60194B1B68002B0BDD174B1B68F8
:10107C00013B164A1360154B1B68002B02D1144B15
:10108C0001221A60134B1B68002B17DD114B1B68D8
:10109C00013B104A13600F4B1B68002B0ED10E4BFB
:1010AC0001221A600D4B1B6801335A4203F00303F3
:1010BC0002F0030258BF5342084A136000BFBD46FA
:1010CC0080BC70478C000020900000209400002011
:1010DC00980000209C000020A0000020A40000200C
:1010EC0080B485B000AF154B9B69144A43F00103E3
:1010FC009361124B9B6903F00103BB60BB680F4B00
:10110C00DB690E4A43F08053D3610C4BDB6903F06F
:10111C0080537B607B680A4B5B68FB60FB6823F049
:10112C00E063FB60FB6843F08063FB60044AFB6890
:10113C00536000BF1437BD4680BC7047001002409E
:10114C000000014080B584B000AF78607B681B68FC
:10115C00B3F1804F13D10C4BDB690B4A43F0010305
:10116C00D361094BDB6903F00103FB60FB680022D0
:10117C0000211C2000F0A1F91C2000F0BAF900BFDE
:10118C001037BD4680BD00BF0010024080B400AFD8
:10119C00FEE780B400AFFEE780B400AFFEE780B49A
:1011AC0000AFFEE780B400AFFEE780B400AF00BF35
:1011BC00BD4680BC704780B400AF00BFBD4680BC4C
:1011CC00704780B400AF00BFBD4680BC704780B58F
:1011DC0000AF00F07FF800BF80BD000080B500AF0D
:1011EC00024800F0DBFF00BF80BD00BFA80000205C
:1011FC0080B400AF00BFBD4680BC7047FFF7F8FF5E
:10120C000B480C490C4A002302E0D458C450043358
:10121C00C4188C42F9D3094A094C002301E013602D
:10122C000432A242FBD301F0F9FAFFF7A7FD704795
:10123C000000002068000020C4280008680000207E
:10124C00F4000020FEE7000080B500AF084B1B68DF
:10125C00074A43F010031360032000F023F90F201A
:10126C0000F008F8FFF73CFF0023184680BD00BFD4
:10127C000020024080B582B000AF7860124B1A6833
:10128C00124B1B7819464FF47A73B3FBF1F3B2FB94
:10129C00F3F3184600F03BF90346002B01D0012371
:1012AC000EE07B680F2B0AD8002279684FF0FF30D4
:1012BC0000F003F9064A7B681360002300E0012369
:1012CC0018460837BD4680BD5C0000206400002035
:1012DC006000002080B400AF054B1B781A46054B0C
:1012EC001B681344034A136000BFBD4680BC7047A3
:1012FC0064000020F000002080B400AF024B1B689B
:10130C001846BD4680BC7047F000002080B485B004
:10131C0000AF78607B6803F00703FB600C4BDB6865
:10132C00BB60BA684FF6FF031340BB60FB681A0240
:10133C00BB68134343F0BF6343F40033BB60044A00
:10134C00BB68D36000BF1437BD4680BC704700BF7C
:10135C0000ED00E080B400AF044BDB681B0A03F027
:10136C0007031846BD4680BC704700BF00ED00E087
:10137C0080B483B000AF0346FB7197F90730002BA4
:10138C000BDBFB7903F01F02064997F907305B0969
:10139C00012000FA02F241F8232000BF0C37BD46B1
:1013AC0080BC704700E100E080B483B000AF03461E
:1013BC003960FB7197F90730002B0ADB3B68DAB216
:1013CC000C4997F907301201D2B20B4483F8002371
:1013DC000AE03B68DAB20849FB7903F00F03043BDF
:1013EC001201D2B20B441A7600BF0C37BD4680BC3A
:1013FC00704700BF00E100E000ED00E080B489B070
:10140C0000AFF860B9607A60FB6803F00703FB611A
:10141C00FB69C3F10703042B28BF0423BB61FB69E1
:10142C000433062B02D9FB69033B00E000237B61EC
:10143C004FF0FF32BB6902FA03F3DA43BB681A4080
:10144C007B699A404FF0FF317B6901FA03F3D94372
:10145C007B680B40134318462437BD4680BC70474D
:10146C0080B582B000AF78607B68013BB3F1807FC0
:10147C0001D301230FE00A4A7B68013B53600F2123
:10148C004FF0FF30FFF790FF054B00229A60044BA2
:10149C0007221A60002318460837BD4680BD00BFDE
:1014AC0010E000E080B582B000AF78607868FFF79C
:1014BC002DFF00BF0837BD4680BD80B586B000AF9C
:1014CC000346B9607A60FB7300237B61FFF742FF30
:1014DC0078617A68B9687869FFF790FF024697F9E6
:1014EC000F3011461846FFF75FFF00BF1837BD4697
:1014FC0080BD80B582B000AF0346FB7197F9073011
:10150C001846FFF735FF00BF0837BD4680BD80B5D4
:10151C0082B000AF78607868FFF7A2FF03461846E8
:10152C000837BD4680BD000080B48BB000AF78603A
:10153C00396000237B6200233B6248E101227B6A15
:10154C0002FA03F3FB613B681B68FA691340BB6149
:10155C00BA69FB699A4240F037813B685B68A34AE1
:10156C0093425ED0A14A934275D8A14A934258D077
:10157C009F4A93426FD89F4A934252D09D4A9342BE
:10158C0069D89D4A93424CD09B4A934263D89B4A5C
:10159C00934246D0994A93425DD8122B2AD8122BEB
:1015AC0059D801A252F823F02F160008091600088A
:1015BC001B1600085D160008631600086316000869
:1015CC00631600086316000863160008631600080B
:1015DC0063160008631600086316000863160008FB
:1015EC00631600086316000863160008111600083D
:1015FC0025160008824A934213D02CE03B68DB6826
:10160C003B6229E03B68DB6804333B6224E03B68C7
:10161C00DB6808333B621FE03B68DB680C333B62E2
:10162C001AE03B689B68002B02D104233B6213E059
:10163C003B689B68012B05D108233B627B68FA69E8
:10164C001A6109E008233B627B68FA695A6103E07E
:10165C0000233B6200E000BFBB69FF2B01D87B6815
:10166C0001E07B6804337B61BB69FF2B02D87B6A8A
:10167C009B0002E07B6A083B9B003B617B691A681C
:10168C000F213B6901FA03F3DB431A40396A3B69CA
:10169C0001FA03F31A437B691A603B685B6803F039
:1016AC008053002B00F09080564B9B69554A43F0B9
:1016BC0001039361534B9B6903F00103BB60BB684F
:1016CC00514A7B6A9B08023352F82330FB607B6AD9
:1016DC0003F003039B000F2202FA03F3DB43FA68C7
:1016EC001340FB607B68494A93420DD07B68484AA3
:1016FC00934207D07B68474A934201D1022304E00E
:10170C00032302E0012300E000237A6A02F00302C3
:10171C0092009340FA681343FB603B497B6A9B0839
:10172C000233FA6841F823203B685B6803F48013AA
:10173C00002B06D0384B9A683749BB6913438B6032
:10174C0006E0354B9A68BB69DB43334913408B6029
:10175C003B685B6803F40013002B06D02E4BDA6851
:10176C002D49BB691343CB6006E02B4BDA68BB6990
:10177C00DB4329491340CB603B685B6803F40033BF
:10178C00002B06D0244B5A682349BB6913434B608A
:10179C0006E0214B5A68BB69DB431F4913404B6081
:1017AC003B685B6803F48033002B06D01A4B1A6835
:1017BC001949BB6913430B6006E0174B1A68BB69E8
:1017CC00DB43154913400B607B6A01337B623B683A
:1017DC001A687B6A22FA03F3002B7FF4AFAE00BFCA
:1017EC0000BF2C37BD4680BC704700BF00003210D4
:1017FC000000311000002210000021100000121017
:10180C0000001110001002400000014000080140CF
:10181C00000C0140001001400004014080B485B070
:10182C0000AF78600B467B807B689A687B8813409E
:10183C00002B02D00123FB7301E00023FB73FB7B25
:10184C0018461437BD4680BC704780B483B000AFD7
:10185C0078600B467B8013467B707B78002B03D023
:10186C007A887B681A6103E07B881A047B681A61AA
:10187C0000BF0C37BD4680BC704780B485B000AF4C
:10188C0078600B467B807B68DB68FB607A88FB6842
:10189C0013401A04FB68D9437B880B401A437B68BE
:1018AC001A6100BF1437BD4680BC704780B586B046
:1018BC0000AF78607B68002B01D101236CE27B6860
:1018CC001B6803F00103002B00F08780924B5B68D0
:1018DC0003F00C03042B0CD08F4B5B6803F00C0350
:1018EC00082B12D18C4B5B6803F48033B3F5803F2B
:1018FC000BD1894B1B6803F40033002B6CD07B6835
:10190C005B68002B68D1012346E27B685B68B3F50A
:10191C00803F06D1804B1B687F4A43F480331360B1
:10192C002EE07B685B68002B0CD17B4B1B687A4AE2
:10193C0023F480331360784B1B68774A23F480239D
:10194C0013601DE07B685B68B3F5A02F0CD1724B64
:10195C001B68714A43F4802313606F4B1B686E4AFB
:10196C0043F4803313600BE06B4B1B686A4A23F41F
:10197C0080331360684B1B68674A23F48023136021
:10198C007B685B68002B13D0FFF7B6FC386108E06E
:10199C00FFF7B2FC02463B69D31A642B01D903232F
:1019AC00FAE15D4B1B6803F40033002BF0D014E01C
:1019BC00FFF7A2FC386108E0FFF79EFC02463B698A
:1019CC00D31A642B01D90323E6E1534B1B6803F4B0
:1019DC000033002BF0D100E000BF7B681B6803F0E4
:1019EC000203002B63D04C4B5B6803F00C03002B01
:1019FC000BD0494B5B6803F00C03082B1CD1464BF6
:101A0C005B6803F48033002B16D1434B1B6803F047
:101A1C000203002B05D07B681B69012B01D001232D
:101A2C00BAE13D4B1B6823F0F8027B685B69DB0075
:101A3C00394913430B603AE07B681B69002B20D0BB
:101A4C00364B01221A60FFF757FC386108E0FFF7AC
:101A5C0053FC02463B69D31A022B01D903239BE1A9
:101A6C002D4B1B6803F00203002BF0D02A4B1B6894
:101A7C0023F0F8027B685B69DB00274913430B609A
:101A8C0015E0264B00221A60FFF736FC386108E09F
:101A9C00FFF732FC02463B69D31A022B01D9032310
:101AAC007AE11D4B1B6803F00203002BF0D17B681D
:101ABC001B6803F00803002B3AD07B689B69002B52
:101ACC0019D0174B01221A60FFF716FC386108E099
:101ADC00FFF712FC02463B69D31A022B01D90323F0
:101AEC005AE10D4B5B6A03F00203002BF0D001208E
:101AFC0000F09AFA1CE00A4B00221A60FFF7FCFB7C
:101B0C0038610FE0FFF7F8FB02463B69D31A022B52
:101B1C0008D9032340E100BF0010024000004242FC
:101B2C00800442429E4B5B6A03F00203002BE9D116
:101B3C007B681B6803F00403002B00F0A6800023D5
:101B4C00FB75974BDB6903F08053002B0DD1944B45
:101B5C00DB69934A43F08053D361914BDB6903F00B
:101B6C008053BB60BB680123FB758E4B1B6803F471
:101B7C008073002B18D18B4B1B688A4A43F48073FB
:101B8C001360FFF7B9FB386108E0FFF7B5FB0246BD
:101B9C003B69D31A642B01D90323FDE0814B1B68ED
:101BAC0003F48073002BF0D07B68DB68012B06D12B
:101BBC007B4B1B6A7A4A43F0010313622DE07B686E
:101BCC00DB68002B0CD1764B1B6A754A23F00103A2
:101BDC001362734B1B6A724A23F0040313621CE0FA
:101BEC007B68DB68052B0CD16D4B1B6A6C4A43F090
:101BFC00040313626A4B1B6A694A43F001031362C4
:101C0C000BE0674B1B6A664A23F001031362644BBB
:101C1C001B6A634A23F0040313627B68DB68002BA6
:101C2C0015D0FFF769FB38610AE0FFF765FB024648
:101C3C003B69D31A41F28832934201D90323ABE0BA
:101C4C00574B1B6A03F00203002BEED014E0FFF796
:101C5C0053FB38610AE0FFF74FFB02463B69D31A8E
:101C6C0041F28832934201D9032395E04C4B1B6A15
:101C7C0003F00203002BEED1FB7D012B05D1484B69
:101C8C00DB69474A23F08053D3617B68DB69002B07
:101C9C0000F08180424B5B6803F00C03082B61D091
:101CAC007B68DB69022B46D13F4B00221A60FFF7A1
:101CBC0023FB386108E0FFF71FFB02463B69D31A90
:101CCC00022B01D9032367E0354B1B6803F000732B
:101CDC00002BF0D17B681B6AB3F5803F08D1304BE9
:101CEC005B6823F400327B689B682D4913434B607F
:101CFC002B4B5B6823F474127B68196A7B685B6AF4
:101D0C000B43274913434B60274B01221A60FFF703
:101D1C00F3FA386108E0FFF7EFFA02463B69D31A91
:101D2C00022B01D9032337E01D4B1B6803F0007312
:101D3C00002BF0D02FE01C4B00221A60FFF7DCFACE
:101D4C00386108E0FFF7D8FA02463B69D31A022B38
:101D5C0001D9032320E0124B1B6803F00073002B06
:101D6C00F0D118E07B68DB69012B01D1012313E072
:101D7C000B4B5B68FB60FB6803F480327B681B6A6F
:101D8C009A4206D1FB6803F470127B685B6A9A4234
:101D9C0001D0012300E0002318461837BD4680BD52
:101DAC0000100240007000406000424280B584B0D8
:101DBC0000AF786039607B68002B01D10123D0E043
:101DCC006A4B1B6803F007033A689A4210D9674BB9
:101DDC001B6823F0070265493B6813430B60634B98
:101DEC001B6803F007033A689A4201D00123B8E05C
:101DFC007B681B6803F00203002B20D07B681B68F8
:101E0C0003F00403002B05D0594B5B68584A43F48C
:101E1C00E06353607B681B6803F00803002B05D05C
:101E2C00534B5B68524A43F460535360504B5B68AE
:101E3C0023F0F0027B689B684D4913434B607B6831
:101E4C001B6803F00103002B40D07B685B68012BFF
:101E5C0007D1474B1B6803F40033002B15D101232A
:101E6C007FE07B685B68022B07D1414B1B6803F05A
:101E7C000073002B09D1012373E03D4B1B6803F069
:101E8C000203002B01D101236BE0394B5B6823F07B
:101E9C0003027B685B68364913434B60FFF72CFAEF
:101EAC00F8600AE0FFF728FA0246FB68D31A41F201
:101EBC008832934201D9032353E02D4B5B6803F026
:101ECC000C027B685B689B009A42EBD1274B1B682A
:101EDC0003F007033A689A4210D2244B1B6823F094
:101EEC00070222493B6813430B60204B1B6803F02D
:101EFC0007033A689A4201D0012332E07B681B68E1
:101F0C0003F00403002B08D0194B5B6823F4E06248
:101F1C007B68DB68164913434B607B681B6803F0D6
:101F2C000803002B09D0124B5B6823F460527B68CA
:101F3C001B69DB000E4913434B6000F021F802468D
:101F4C000B4B5B681B0903F00F030A49CB5C22FAAD
:101F5C0003F3094A1360094B1B681846FFF78AF90B
:101F6C00002318461037BD4680BD00BF002002403C
:101F7C0000100240982800085C000020600000203F
:101F8C0080B487B000AF0023FB600023BB6000234C
:101F9C007B6100237B6000233B611E4B5B68FB6015
:101FAC00FB6803F00C03042B02D0082B03D027E0B2
:101FBC00194B3B6127E0FB689B0C03F00F03174A9E
:101FCC00D35C7B60FB6803F48033002B10D0114B87
:101FDC005B685B0C03F00103114AD35CBB607B684C
:101FEC000D4A02FB03F2BB68B2FBF3F37B6104E026
:101FFC007B680C4A02FB03F37B617B693B6102E06B
:10200C00054B3B6100BF3B6918461C37BD4680BC85
:10201C00704700BF0010024000127A00A828000888
:10202C00B828000800093D0080B485B000AF786086
:10203C000A4B1B680A4AA2FB03235B0A7A6802FB61
:10204C0003F3FB6000BFFB685A1EFA60002BF9D14A
:10205C0000BF00BF1437BD4680BC70475C00002039
:10206C00D34D621080B582B000AF78607B68002BD6
:10207C0001D1012341E07B6893F83D30DBB2002BAA
:10208C0006D17B68002283F83C207868FFF75AF869
:10209C007B68022283F83D207B681A687B680433D6
:1020AC001946104600F056FA7B68012283F8462048
:1020BC007B68012283F83E207B68012283F83F2055
:1020CC007B68012283F840207B68012283F8412041
:1020DC007B68012283F842207B68012283F843202D
:1020EC007B68012283F844207B68012283F8452019
:1020FC007B68012283F83D20002318460837BD4633
:10210C0080BD000080B485B000AF78607B6893F828
:10211C003D30DBB2012B01D0012335E07B6802227C
:10212C0083F83D207B681B68DA687B681B6842F08B
:10213C000102DA607B681B68164A934209D07B68FF
:10214C001B68B3F1804F04D07B681B68124A934222
:10215C0011D17B681B689B6803F00703FB60FB686D
:10216C00062B10D07B681B681A687B681B6842F0D2
:10217C0001021A6007E07B681B681A687B681B68A1
:10218C0042F001021A60002318461437BD4680BC89
:10219C00704700BF002C01400004004080B584B0A3
:1021AC0000AF78607B681B68DB68FB607B681B6832
:1021BC001B69BB60BB6803F00203002B20D0FB68DB
:1021CC0003F00203002B1BD07B681B686FF002022C
:1021DC001A617B6801221A777B681B689B6903F084
:1021EC000303002B03D0786800F098F905E07868B9
:1021FC0000F08BF9786800F09AF97B6800221A7766
:10220C00BB6803F00403002B20D0FB6803F004032D
:10221C00002B1BD07B681B686FF004021A617B6873
:10222C0002221A777B681B689B6903F44073002BAE
:10223C0003D0786800F072F905E0786800F065F971
:10224C00786800F074F97B6800221A77BB6803F099
:10225C000803002B20D0FB6803F00803002B1BD0D5
:10226C007B681B686FF008021A617B6804221A777E
:10227C007B681B68DB6903F00303002B03D07868D1
:10228C0000F04CF905E0786800F03FF9786800F050
:10229C004EF97B6800221A77BB6803F01003002B01
:1022AC0020D0FB6803F01003002B1BD07B681B684D
:1022BC006FF010021A617B6808221A777B681B6822
:1022CC00DB6903F44073002B03D0786800F026F927
:1022DC0005E0786800F019F9786800F028F97B6857
:1022EC0000221A77BB6803F00103002B0CD0FB68AB
:1022FC0003F00103002B07D07B681B686FF0010211
:10230C001A617868FEF738FEBB6803F08003002B77
:10231C000CD0FB6803F08003002B07D07B681B6894
:10232C006FF080021A61786800F06FFABB6803F0F6
:10233C004003002B0CD0FB6803F04003002B07D0AC
:10234C007B681B686FF040021A61786800F0F8F83F
:10235C00BB6803F02003002B0CD0FB6803F02003B8
:10236C00002B07D07B681B686FF020021A6178681D
:10237C0000F042FA00BF1037BD4680BD80B584B076
:10238C0000AF786039600023FB737B6893F83C30B6
:10239C00012B01D10223B4E07B68012283F83C209D
:1023AC007B68022283F83D207B681B689B68BB60BE
:1023BC00BB6823F07703BB60BB6823F47F43BB602F
:1023CC007B681B68BA689A603B681B68B3F5005F52
:1023DC003ED0B3F5005F00F28780B3F5805F00F06C
:1023EC008680B3F5805F7FD8702B1AD0702B7BD88A
:1023FC00602B50D0602B77D8502B3CD0502B73D8FF
:10240C00402B58D0402B6FD8302B64D0302B6BD84E
:10241C00202B60D0202B67D8002B5CD0102B5AD0EF
:10242C0062E07B6818683B6899683B685A683B684F
:10243C00DB6800F06AF97B681B689B68BB60BB6853
:10244C0043F07703BB607B681B68BA689A604FE007
:10245C007B6818683B6899683B685A683B68DB681E
:10246C0000F053F97B681B689A687B681B6842F420
:10247C0080429A603CE07B6818683B6859683B680E
:10248C00DB681A4600F0CAF87B681B6850211846B6
:10249C0000F021F92CE07B6818683B6859683B68B0
:1024AC00DB681A4600F0E8F87B681B686021184668
:1024BC0000F011F91CE07B6818683B6859683B68B0
:1024CC00DB681A4600F0AAF87B681B6840211846A6
:1024DC0000F001F90CE07B681A683B681B68194630
:1024EC00104600F0F8F803E00123FB7300E000BF96
:1024FC007B68012283F83D207B68002283F83C2016
:10250C00FB7B18461037BD4680BD80B483B000AF4E
:10251C00786000BF0C37BD4680BC704780B483B078
:10252C0000AF786000BF0C37BD4680BC704780B4EC
:10253C0083B000AF786000BF0C37BD4680BC7047DD
:10254C0080B483B000AF786000BF0C37BD4680BC50
:10255C007047000080B485B000AF786039607B684C
:10256C001B68FB607B682B4A934207D07B68B3F1F6
:10257C00804F03D07B68284A934208D1FB6823F034
:10258C007003FB603B685B68FA681343FB607B6815
:10259C00204A934207D07B68B3F1804F03D07B680D
:1025AC001D4A934208D1FB6823F44073FB603B68DF
:1025BC00DB68FA681343FB60FB6823F080023B681E
:1025CC005B691343FB607B68FA681A603B689A6826
:1025DC007B68DA623B681A687B689A627B680D4A92
:1025EC00934203D13B681A697B681A637B680122AA
:1025FC005A617B681B6903F00103002B05D07B68D3
:10260C001B6923F001027B681A6100BF1437BD46B9
:10261C0080BC7047002C01400004004080B487B09F
:10262C0000AFF860B9607A60FB681B6A7B61FB687D
:10263C001B6A23F00102FB681A62FB689B693B6111
:10264C003B6923F0F0033B617B681B013A69134340
:10265C003B617B6923F00A037B617A69BB68134396
:10266C007B61FB683A699A61FB687A691A6200BF00
:10267C001C37BD4680BC704780B487B000AFF86093
:10268C00B9607A60FB681B6A7B61FB681B6A23F08C
:10269C001002FB681A62FB689B693B613B6923F47F
:1026AC0070433B617B681B033A6913433B617B6955
:1026BC0023F0A0037B61BB681B017A6913437B6128
:1026CC00FB683A699A61FB687A691A6200BF1C3729
:1026DC00BD4680BC704780B485B000AF786039606F
:1026EC007B689B68FB60FB6823F07003FB603A68B7
:1026FC00FB68134343F00703FB607B68FA689A603E
:10270C0000BF1437BD4680BC704780B487B000AFA3
:10271C00F860B9607A603B60FB689B687B617B69A1
:10272C0023F47F437B613B681A027B681A43BB68C6
:10273C0013437A6913437B61FB687A699A6000BF23
:10274C001C37BD4680BC704780B485B000AF786044
:10275C0039607B6893F83C30012B01D1022341E0B6
:10276C007B68012283F83C207B68022283F83D20A1
:10277C007B681B685B68FB607B681B689B68BB6045
:10278C00FB6823F07003FB603B681B68FA6813431B
:10279C00FB607B681B68FA685A607B681B68144A8C
:1027AC00934209D07B681B68B3F1804F04D07B68DF
:1027BC001B68104A93420CD1BB6823F08003BB60AA
:1027CC003B685B68BA681343BB607B681B68BA687C
:1027DC009A607B68012283F83D207B68002283F895
:1027EC003C20002318461437BD4680BC704700BF00
:1027FC00002C01400004004080B483B000AF78602E
:10280C0000BF0C37BD4680BC704780B483B000AFAE
:10281C00786000BF0C37BD4680BC704770B5002691
:10282C000C4D0D4C641BA410A64209D100F022F8EB
:10283C0000260A4D0A4C641BA410A64205D170BD9B
:10284C0055F8043B98470136EEE755F8043B98479A
:10285C000136F2E7BC280008BC280008BC28000898
:10286C00C028000803460244934200D1704703F885
:10287C00011BF9E7F8B500BFF8BC08BC9E467047D1
:0C288C00F8B500BFF8BC08BC9E467047C1
:102898000000000000000000010203040607080908
:1028A80002030405060708090A0B0C0D0E0F101089
:0428B8000102000019
:0428BC0031010008DE
:0428C0000D010008FE
:1028C4000100000001000000010000000100000000
:1028D400C800000001000000010000000100000029
:1028E400010000006400000001000000010000007D
:1028F4000100000001000000C8000000881300006F
:10290400D0070000B80B000001000000881300008D
:10291400D0070000B80B00000A00000000127A0083
:0829240010000000010000009A
:0400000508001209D4
:00000001FF
